:020000040800F2
:10000000083501200D060008E9030008EB0300088D
:10001000EF030008F3030008F703000800000000E6
:10002000000000000000000000000000290200089D
:10003000FB0300080000000085020008A91D00085D
:1000400027060008270600082706000827060008DC
:1000500027060008270600082706000827060008CC
:1000600027060008270600082706000827060008BC
:1000700027060008270600082706000827060008AC
:10008000270600082706000827060008270600089C
:10009000270600082706000827060008270600088C
:1000A000270600082706000827060008270600087C
:1000B000270600082706000827060008270600086C
:1000C000270600082706000827060008270600085C
:1000D0002706000833160008270600082706000830
:1000E000270600082706000827060008270600083C
:1000F000270600082706000827060008270600082C
:10010000270600082706000827060008270600081B
:10011000270600082706000827060008270600080B
:1001200027060008270600082706000827060008FB
:1001300027060008270600082706000827060008EB
:1001400027060008270600082706000827060008DB
:1001500027060008270600082706000827060008CB
:1001600027060008270600082706000827060008BB
:1001700027060008270600082706000827060008AB
:10018000270600082706000800F002F800F03CF8F7
:100190000AA090E8000C82448344AAF10107DA45E2
:1001A00001D100F031F8AFF2090EBAE80F0013F0F8
:1001B000010F18BFFB1A43F001031847605A0000F3
:1001C000805A0000103A24BF78C878C1FAD8520784
:1001D00024BF30C830C144BF04680C6070470000C1
:1001E0000023002400250026103A28BF78C1FBD840
:1001F000520728BF30C148BF0B6070471FB505F0DC
:1002000007FD1FBD10B510BD05F0BCFC1146FFF782
:10021000F5FF00F069F805F0EEFC03B4FFF7F2FF1C
:1002200003BC01F0A7F900002C4B19680868B0E87E
:10023000F04F80F30988BFF36F8F4FF0000080F319
:10024000118870470000000008480068006880F3CB
:1002500008884FF0000080F3148862B661B6BFF3DF
:100260004F8FBFF36F8F00DF00BF00BF08ED00E0CE
:10027000DFF80C00016841F470010160704700BFB5
:1002800088ED00E0EFF30980BFF36F8F134B1A681E
:100290001EF0100F08BF20ED108A20E9F04F10600B
:1002A00009B44FF0500080F31188BFF34F8FBFF3B4
:1002B0006F8F03F019FC4FF0000080F3118809BC28
:1002C00019680868B0E8F04F1EF0100F08BFB0ECD6
:1002D000108A80F30988BFF36F8F704758000020A1
:1002E000EFF3058070470000A82001F0C1F84FF43B
:1002F000E13001F04CF90CA005F03EFB14A005F034
:100300003BFB1CA005F038FB20A005F035FB24A02A
:1003100005F032FB06E02CA005F02EFB4FF47A70BE
:1003200001F008F9F7E700000D0A3D3D3D3D3D3D78
:100330003D3D3D3D3D3D3D3D3D3D3D3D3D3D3D3DED
:100340003D3D3D3D3D3D3D3D3D3D3D3D3D0D0A007D
:10035000D6C7C4DCCDBCCAE9B9DDCFB5CDB3202D3D
:1003600020C2E3BBFAB8B4BFCCB0E6C6F4B6AF0D5A
:100370000A000000BACBD0C4D0BEC6AC3A20535459
:100380004D3332463430375A470D0A00CFB5CDB31E
:10039000CAB1D6D33A20313638204D487A0D0A00FA
:1003A0003D3D3D3D3D3D3D3D3D3D3D3D3D3D3D3D7D
:1003B0003D3D3D3D3D3D3D3D3D3D3D3D3D3D3D3D6D
:1003C0003D3D3D0D0A00000053797374656D204872
:1003D00065617274626561743A2052756E204F4B8C
:1003E0002E2E2E0D0A000000704700BFFEE700BF52
:1003F000FEE700BFFEE700BFFEE770470CB5002038
:10040000019000907648006840F48030744908609C
:1004100000BF7348006800F4003000900198401C51
:100420000190009818B90198B0F5A04FF1D16C482F
:10043000006800F4003010B10120009001E00020BD
:1004400000900098012846D165484030006840F08F
:1004500080506349403108606248006840F4404081
:10046000604908605E48083000685D4908310860EE
:100470000846006840F4004008600846006840F400
:10048000A05008605848091F0860081F006840F025
:100490008070091F086000BF5148006800F00070BC
:1004A0000028F9D040F20570504908604C480830E7
:1004B000006820F003004A490831086008460068D7
:1004C00040F00200086000BF45480830006800F0B6
:1004D0000C000828F8D10CBD10B54548006840F460
:1004E0007000434908603E48006840F001003C4904
:1004F000086000203A4908310860394800683D49E1
:100500000840374908603C48091D0860081F00681A
:1005100020F48020091F0860002031490C31086058
:10052000FFF76CFF4FF0006031498039086010BD63
:1005300070B500200022022300240221284D083536
:100540002D6805F00C0020B1042806D0082834D10D
:1005500007E02A4D2A4E356033E02A4D284E35609B
:100560002FE01F4D2D1D2D68C5F380541C4D2D1DF2
:100570002D6805F03F0154B1224DB5FBF1F5184E41
:10058000361D3668C6F3881605FB06F209E01B4DDA
:10059000B5FBF1F5124E361D3668C6F3881605FB1D
:1005A00006F20F4D2D1D2D68C5F301456D1C6B0026
:1005B000B2FBF3F5124E356003E0104D104E35607E
:1005C00000BF00BF064D08352D68C5F303150E4E5C
:1005D000705D0B4D2D68C540094E356070BD000043
:1005E000003802400070004008544007003C0240C0
:1005F00088ED00E0FFFFF6FE103000240024F40038
:100600000000002000127A00040000200948804702
:1006100009480047FEE7FEE7FEE7FEE7FEE7FEE7E4
:10062000FEE7FEE7FEE7FEE704480549054A064BFC
:1006300070470000D904000889010008082F012034
:1006400008350120083101200831012032490143D9
:10065000324A1160704770B5002100230F22C47820
:100660001CB32E4C246804F4E064C4F5E064C4F3C5
:100670000721C1F10404E3B20A4144789C40E1B28D
:100680008478144021430C07210E254C05786155D0
:10069000047804F01F050124AC4005786D11AD000D
:1006A00005F1E025C5F8004109E0047804F01F05D4
:1006B0000124AC401B4D0678761145F8264070BDEC
:1006C000194A0A400243154B1B1F1A60704739B183
:1006D000124A121D12680243104B1B1D1A6006E0DD
:1006E0000E4A121D126882430C4B1B1D1A60704784
:1006F000042808D14FF0E021096941F004014FF0CE
:10070000E022116107E04FF0E021096921F00401C6
:100710004FF0E022116170470000FA050CED00E097
:1007200000E400E080E100E080FFFF1F10B5044618
:100730009848844208D10121084600F086FB002138
:10074000012000F082FB76E09348844208D1012129
:10075000022000F07AFB0021022000F076FB6AE024
:100760008E48844208D10121042000F06EFB002154
:10077000042000F06AFB5EE08948844208D1012130
:10078000082000F062FB0021082000F05EFB52E030
:100790008448844208D10121102000F056FB00213A
:1007A000102000F052FB46E07F48844208D101212E
:1007B000202000F04AFB0021202000F046FB3AE018
:1007C0007A48844208D10121402000F03EFB0021FC
:1007D000402000F03AFB2EE07548844208D1012108
:1007E000802000F032FB0021802000F02EFB22E070
:1007F0007048844208D10121801500F026FB0021B9
:10080000A01500F022FB16E06B48844208D10121BC
:10081000401500F01AFB0021601500F016FB0AE0FD
:100820006648844207D10121001500F00EFB00212B
:10083000201500F00AFB10BDF0B50A460021002388
:10084000002400BF3DE0012505FA01F3156805EA23
:1008500003049C4234D105684F000326BE40B543D3
:10086000056015794E00B540066835430560157979
:10087000012D02D01579022D16D185684F0003266F
:10088000BE40B543856055794E00B5408668354316
:100890008560456801268E40B54345604568967978
:1008A0008E40B6B235434560C5684F000326BE4052
:1008B000B543C560D5794E00B540C6683543C560BF
:1008C000491C1029BFD3F0BD4FF6FF710160002114
:1008D000017141718171C171704708B54FF4803267
:1008E0000092009A0A430092009AC261C161009A84
:1008F000C261C2690092C269009208BD024600202E
:1009000013690B400BB1012000E000207047014645
:10091000086980B270470246002053690B400BB152
:10092000012000E0002070470146486980B270470E
:1009300001837047418370470AB1018300E041831E
:1009400070474161704742694A4042617047F0B563
:10095000002300244D07ED0E02FA05F3CE1000F13E
:10096000200555F826504E07F70E0F26BE40B5431A
:10097000CF1000F1200646F82750CE1000F12005D8
:1009800055F8265045EA0304CE1000F1200545F83D
:100990002640F0BD00000240000402400008024072
:1009A000000C0240001002400014024000180240F7
:1009B000001C0240002002400024024000280240A7
:1009C000F948006840F00100F74908600020F64946
:1009D00008310860F4480068F4490840F2490860AA
:1009E000F348091D0860F348EF4984310860F04876
:1009F0001038091D0860EC48006820F48020EA499E
:100A000008600020E8490C310860E7498C31086033
:100A100070470021E44A921C11701146087070471B
:100A200010B501460022002300204A11012A02D1FC
:100A3000DD4C236808E0022A03D1DB4C70342368C4
:100A400002E0D94C7434236801F01F020124944061
:100A50001C400CB1012000E0002010BD38B5002082
:100A600000900024002500BF3120FFF7D9FF054684
:100A70000098401C00900098B0F5A04F01D0002DC8
:100A8000F2D03120FFF7CCFF08B1012400E00024B0
:100A9000204638BD01460020C34A106820F0F80007
:100AA00040EAC10010607047C349086070470021E8
:100AB000BD4A703211701170012802D004280AD189
:100AC00004E00121B84A7032117005E00521B64AF0
:100AD0007032117000E000BF00BF7047B749086076
:100AE000704770B5049C41EA82150126C6EB530697
:100AF00045EA0645054345EA0465AB4E361D3560BB
:100B000070BDAD4908667047820142EA0172A64B8A
:100B100084331A607047A8498866704710B583010E
:100B200043EA016343EA02739F4C8834236010BD9B
:100B3000A14908677047A049C86470470246002071
:100B4000994B0833186820F0EC6042EA010318431F
:100B5000954B08331860704702460020924B0833CB
:100B6000186820F0784042EA010318438E4B08339E
:100B700018607047014600208B4A0832106820F048
:100B8000030008431060704787480830006800F091
:100B90000C00704701460020834A0832106820F09C
:100BA000F000084310607047014600207E4A08327A
:100BB000106820F4E05008431060704701460020A0
:100BC000794A0832106820F4604040EAC1001060A1
:100BD0007047F0B5002100220024022500260223E0
:100BE000714F08373F6807F00C0121B1042905D087
:100BF000082937D105E0724F076036E0714F076072
:100C000033E0694F3F1D3F68C7F38056664F3F1D75
:100C10003F6807F03F036EB16A4FB7FBF3F7DFF8A9
:100C200088C10CF1040CDCF800C0CCF3881C07FB75
:100C30000CF40CE0624FB7FBF3F7DFF86CC10CF17A
:100C4000040CDCF800C0CCF3881C07FB0CF4564FF6
:100C50003F1D3F68C7F301477F1C7D00B4FBF5F7DC
:100C6000076002E0564F076000BF00BF4E4F0837D5
:100C70003F6807F0F0010909534F7A5C0768D740D5
:100C80004760494F08373F6807F4E051890A4E4FE3
:100C90007A5C4768D7408760434F08373F6807F45E
:100CA0006041490B484F7A5C4768D740C760F0BD48
:100CB000002100F44072B2F5407F0AD13A4A08326E
:100CC000116821F4F811414A02401143364A0832B2
:100CD0001160354A70321268C0F30B031A43324B6D
:100CE00070331A607047354944390860704733499A
:100CF0004039086070473649086070470146002057
:100D0000294A8C32106820F01F004A1E1043264AE0
:100D10008C321060704701460020234A8C321068E4
:100D200020F4F8504A1E40EA02201F4A8C3210601C
:100D30007047014600201C4A8C32106820F4401095
:100D400008431060704701460020174A8C32106833
:100D500020F4400008431060704701460020124A0A
:100D60008C32106820F440300843106070471949F5
:100D70000860704739B10C4A3032126802430A4B9E
:100D800030331A6006E0084A303212688243064B5C
:100D900030331A607047F9B1034A343212680243A3
:100DA000014B34331A601CE000380240FFFFF6EAC2
:100DB000103000240030002000004742800E4742DF
:100DC0000024F40000127A0014000020FFFCFF0F42
:100DD0005C014742E01147428F4A126882438E4BC2
:100DE0001A60704739B18C4A121D126802438A4B4F
:100DF0001B1D1A6006E0884A121D12688243864B4A
:100E00001B1D1A60704739B1834A0C3212680243C5
:100E1000814B0C331A6006E07F4A0C321268824321
:100E20007D4B0C331A60704739B17B4A103212681F
:100E30000243794B10331A6006E0774A1032126889
:100E40008243754B10331A60704739B1724A243AA5
:100E500012680243704B243B1A6006E06E4A243A43
:100E6000126882436C4B243B1A60704739B16A4A5E
:100E7000203A12680243684B203B1A6006E0664A3B
:100E8000203A12688243644B203B1A60704739B1A4
:100E9000614A1C3A126802435F4B1C3B1A6006E031
:100EA0005D4A1C3A126882435B4B1C3B1A607047D8
:100EB00039B1594A143A12680243574B143B1A602D
:100EC00006E0554A143A12688243534B143B1A60A9
:100ED000704739B1504A103A126802434E4B103BEA
:100EE0001A6006E04C4A103A126882434A4B103BA3
:100EF0001A60704739B1484A1C3212680243464BA7
:100F00001C331A6006E0444A1C3212688243424B8A
:100F10001C331A60704739B13F4A203212680243CD
:100F20003D4B20331A6006E03B4A20321268824370
:100F3000394B20331A60704739B1374A243212686E
:100F40000243354B24331A6006E0334A24321268D8
:100F50008243314B24331A60704739B12E4A2C3208
:100F6000126802432C4B2C331A6006E02A4A2C32BA
:100F700012688243284B2C331A60704739B1264AD5
:100F8000303212680243244B30331A6006E0224AA2
:100F9000303212688243204B30331A607047012888
:100FA00008D11D493C31096841F008011A4A3C3218
:100FB000116007E018493C31096821F00801164A20
:100FC0003C321160704739B1134A273A1278024314
:100FD000114B273B1A7006E00F4A273A12788243DA
:100FE0000D4B273B1A7070470B484030006840F0AB
:100FF0008070094940310860704701460020064A68
:10100000283A12680A400AB1012000E00020704727
:1010100001492639087070473438024010B504463B
:10102000FA48844208D101211020FFF752FF002125
:101030001020FFF74EFF57E0F548844209D1012107
:101040004804FFF735FF00214FF40030FFF730FF71
:101050004AE0F048844209D101218804FFF728FFC3
:1010600000214FF48020FFF723FF3DE0EA4884424F
:1010700009D10121C804FFF71BFF00214FF4002014
:10108000FFF716FF30E0E548844209D10121080549
:10109000FFF70EFF00214FF48010FFF709FF23E058
:1010A000DF48844208D101212020FFF712FF0021F0
:1010B0002020FFF70EFF17E0DA48844209D1012112
:1010C0008807FFF7F5FE00214FF08040FFF7F0FEA4
:1010D0000AE0D548844207D101214005FFF7E8FE28
:1010E00000216005FFF7E4FE10BD2DE9FF4705462E
:1010F0000E460024A14600BFA046B08900B100BF43
:101100002C8A24F44054F08804432C82AC8941F2A8
:101110000C608443B08831890843718908430443D3
:10112000AC81AC8A24F44074B0890443AC82684634
:10113000FFF74FFDB548854202D0B948854202D13C
:10114000DDF80C9001E0DDF80890A88900F400407B
:1011500040B109EBC90000EB091031684900B0FB50
:10116000F1F707E009EBC90000EB091031688900CD
:10117000B0FBF1F76420B7FBF0F004012009642113
:1011800001FB1078A88900F4004040B1322000EB48
:10119000C800B0FBF1F000F00700044308E0322083
:1011A00000EB08106421B0FBF1F000F00F000443E5
:1011B0002C81BDE8FF874FF416510160002181802A
:1011C000C18001810C21418100218181704710B5CE
:1011D00002460020108A20F470600B884C8823435C
:1011E0008C882343CC8823431843108210BD0021F0
:1011F000018041808180C180704721B1828942F4A1
:101200000052828104E082894DF6FF731A40828188
:101210007047028B02F47F420283028B0A430283EF
:10122000704721B1828942F40042828103E08289C1
:10123000C2F30E028281704721B1828A42F40062B9
:10124000828204E0828A4FF2FF731A4082827047E2
:10125000C1F308028280704701468888C0F3080005
:101260007047028A4FF6F0731A400282028A0A43DC
:101270000282704721B1828942F00202828104E039
:1012800082894FF6FD731A408281704782894FF23E
:10129000FF731A40828182890A4382817047028AE1
:1012A0004FF6DF731A400282028A0A4302827047B5
:1012B00021B1028A42F48042028204E0028A4BF6A3
:1012C000FF731A4002827047818941F001018181D8
:1012D000704721B1828A42F00802828204E0828A49
:1012E0004FF6F7731A4082827047028BD2B20283A4
:1012F000028B42EA01220283704721B1828A42F0C6
:101300002002828204E0828A4FF6DF731A408282D2
:10131000704721B1828A42F01002828204E0828A00
:101320004FF6EF731A4082827047828A4FF6FB7342
:101330001A408282828A0A438282704721B1828A5D
:1013400042F00202828204E0828A4FF6FD731A4064
:10135000828270471AB1838A0B43838202E0838AB8
:101360008B4383827047F0B5034600240026002596
:10137000002040F66A17B94200D100BF1846C1F3F9
:10138000421401F01F06012707FA06F5012C01D1CE
:101390000C3004E0022C01D1103000E014301AB1FE
:1013A00007682F43076002E00768AF430760F0BD9E
:1013B00002460020B1F5007F00D100BF13880B402A
:1013C0000BB1012000E00020704701F40072B2F57B
:1013D000007F00D100BFCA430280704770B502464B
:1013E000002400230025002040F66A16B14200D1F7
:1013F00000BFC1F3421501F01F03012606FA03F3F3
:10140000012D13D19689334017E0000000100140F0
:101410000044004000480040004C004000500040A4
:101420000014014000780040007C0040022D02D1F1
:10143000168A334001E0968A33400C12012606FAE0
:1014400004F41688344013B10CB1012000E00020F0
:1014500070BD10B50022002340F66A14A14200D1ED
:1014600000BF0A1201249440A3B2DC43048010BDE3
:1014700010B504466FF00400FFF73AF9E11704EBEA
:101480005171C1F3C701394A11701046007800EB61
:101490004001C1EBC0104FF6FF7101EAC0003449B2
:1014A000088010BD0146314A12784A434FF0E023CC
:1014B0005A6100229A611A46126942F001021A61C9
:1014C00000BF4FF0E022106900F001021AB100F4F1
:1014D0008032002AF5D04FF0E022126922F001029A
:1014E0004FF0E0231A6100229A6170470146204ABA
:1014F00012884A434FF0E0235A6100229A611A464B
:10150000126942F001021A6100BF4FF0E022106937
:1015100000F001021AB100F48032002AF5D04FF039
:10152000E022126922F001024FF0E0231A6100224A
:101530009A61704770B504464FF4077094FBF0F061
:10154000C6B24FF4077094FBF0F100FB114085B276
:1015500005E04FF40770FFF7C9FF701EC6B2002EFA
:10156000F7D115B12846FFF7C1FF70BD2400002058
:101570002600002000BF704700BF4C4A128802F0CE
:101580004002002AF9D0C2B2484B9A80704710B589
:1015900088B0044601210846FFF7ECFB012110202A
:1015A000FFF742FC072209214148FFF7D0F9072243
:1015B0000A213F48FFF7CBF94FF4C06006900220A4
:1015C0008DF81C008DF81D0000208DF81E000120F4
:1015D0008DF81F0006A93648FFF72EF90294002067
:1015E000ADF80C00ADF80E00ADF81000ADF8140029
:1015F0000C20ADF8120002A92C48FFF776FD01215E
:101600002A48FFF7FAFD012240F225512748FFF74B
:10161000AAFE25208DF8040003208DF805008DF822
:10162000060001208DF8070001A8FFF714F808B0A4
:1016300010BD10B540F225511C48FFF7CFFE10B386
:101640001A48FFF709FEC4B21A48008800F40040A7
:10165000C8B91848008800F4804060B10A2C03D053
:1016600000201449088020E01248008840F400401F
:101670001049088019E00D2C06D10E48008840F46E
:1016800080400C49088010E00A480088C0F30D0033
:1016900009490C5407480088401C06490880084640
:1016A0000088C72801DD0020088010BD001001401F
:1016B000000002402C000020AC00002030B54FF4A8
:1016C0009633FE4800F007042CB1C01D20F007003F
:1016D000FA4C041B1B1BFA4C20600024F84D6C6074
:1016E000C218083A22F00702F64C22600024F54D99
:1016F0002D686C60F34D2D682C600146541A4C60C7
:10170000F04C24680C60F04D4C682C60EF4D4C6838
:101710002C6030BD2DE9F04705464FF00008DDB1E3
:1017200015F1090F01D9012000E0002098B9083512
:1017300005F0070080B105F00700C0F10809C9F104
:10174000FF30A84201D2012000E0002008B94D443A
:1017500002E0002500E0002501F0C3FFD948006841
:1017600008B9FFF7ABFF012000EBE570002877D048
:10177000002DFCD0D5480068854271D8D04E304647
:101780000468CE48844204D3D148844201D8012061
:1017900000E0002050B900BF502080F31188BFF353
:1017A0004F8FBFF36F8F00BF00BFFEE716E02646E6
:1017B0002468C248844204D3C548844201D8012029
:1017C00000E0002050B900BF502080F31188BFF323
:1017D0004F8FBFF36F8F00BF00BFFEE76068A84266
:1017E00002D220680028E2D1B6480068844267D05F
:1017F000306800F10808B148804504D3B4488045FA
:1018000001D8012000E0002050B900BF502080F333
:101810001188BFF34F8FBFF36F8F00BF00BFFEE78C
:10182000206830606068A84201D2012000E00020FA
:1018300080F0010050B900BF502080F31188BFF341
:101840004F8FBFF36F8F00BF00BFFEE76068401B84
:1018500010281AD9671907F0070010B9012001E014
:101860002EE0002050B900BF502080F31188BFF354
:101870004F8FBFF36F8F00BF00BFFEE76068401B54
:1018800078606560306838603760904960680968E2
:10189000081A8E490860084600688B490968884222
:1018A00003D28A48006888490860606840F00040B8
:1018B00060600020206087480068401C85490860FF
:1018C00001F0F9FD08F0070008B9012000E0002050
:1018D00050B900BF502080F31188BFF34F8FBFF382
:1018E0006F8F00BF00BFFEE74046BDE8F08710B530
:1018F0000146734800E0006803688B42FBD3704BDD
:10190000984214D06D4B984204D3714B984201D841
:10191000012300E0002353B900BF502383F3118853
:10192000BFF34F8FBFF36F8F00BF00BFFEE70246CC
:10193000436813448B4204D143684C68234443609A
:1019400001460A464B6813440468A34211D15D4C1A
:1019500003682468A34208D04B6804686468234481
:101960004B6003681B680B6005E0564B1B680B60FF
:1019700001E003680B60884200D0016010BD70B5C3
:1019800006463546002E50D0083D2C464B48844232
:1019900004D34F48844201D8012000E0002050B910
:1019A00000BF502080F31188BFF34F8FBFF36F8FBC
:1019B00000BF00BFFEE76068C00F50B900BF5020F5
:1019C00080F31188BFF34F8FBFF36F8F00BF00BF4D
:1019D000FEE7206808B9012000E0002050B900BFF0
:1019E000502080F31188BFF34F8FBFF36F8F00BF7C
:1019F00000BFFEE76068C00FB8B12068A8B9606892
:101A000020F00040606001F06CFE304960680968B9
:101A100008442E4908602046FFF769FF2E480068F9
:101A2000401C2D49086001F046FD70BD2748006844
:101A30007047254800687047704770B504460D46EA
:101A4000002634B1701EB0FBF4F0A84201D2012090
:101A500000E0002050B904FB05F0FFF75BFE0646EE
:101A600026B104FB05F1304603F0DFFF304670BDC0
:101A70002DE9F04104464FF000080026771E01F0E2
:101A800030FE0F4805687DB10AE008F1010868687A
:101A9000B04200D96E686868B84200D26F682D689D
:101AA000084800688542F0D101F005FD6660A76036
:101AB000C4F80C8000F035F904480FE074010020F0
:101AC0003000002038000020400000203C000020B2
:101AD000732D012044000020480000200068206091
:101AE0000C48006860610C480068A0610B48006801
:101AF000206100F03DF9BDE8F08100200849086050
:101B00000849086005490860024908600249086000
:101B100070470000440000204800002040000020E2
:101B2000380000203C000020C6480068401C08B96E
:101B3000012000E0002050B900BF502080F3118840
:101B4000BFF34F8FBFF36F8F00BF00BFFEE700BF33
:101B5000502080F31188BFF34F8FBFF36F8F00BF0A
:101B600000BFFEE7001F4FF080730360001F21F0ED
:101B700001030360001FB44B036014380260001FB0
:101B80006FF0020303602038704700204FF0E0211F
:101B900008618861AD4800684FF47A71B0FBF1F0DC
:101BA000401E4FF0E02148610720086170470EB5E4
:101BB000A7480068A749884201D0012000E0002022
:101BC00050B900BF502080F31188BFF34F8FBFF38F
:101BD0006F8F00BF00BFFEE79D4800689D49491E0A
:101BE000884201D0012000E0002050B900BF502001
:101BF00080F31188BFF34F8FBFF36F8F00BF00BF1B
:101C0000FEE7002001909449084600780290FF20EA
:101C10000A4610700846007800909DF8000000F019
:101C200050008E4A10701046007850B900BF502006
:101C300080F31188BFF34F8FBFF36F8F00BF00BFDA
:101C4000FEE79DF800205020904308B9012000E0F5
:101C5000002050B900BF502080F31188BFF34F8F90
:101C6000BFF36F8F00BF00BFFEE707E00198401C85
:101C700001909DF800004006000E00909DF80000C5
:101C800000F080008028F1D00198082803D10020BE
:101C9000734A106004E00198C0F10700704A1060B8
:101CA0006F48006800026E4A10601046008800F419
:101CB000E06010609DF80800674A107064482030AA
:101CC000006840F47F0062492031086008460068DF
:101CD00040F07F400860FFF758FF00205949086036
:101CE000FEF7C6FA5F48006840F040405D49086072
:101CF000FEF7AAFA00200EBD52480068B0F57A7FC0
:101D000001D1012000E0002050B900BF502080F335
:101D10001188BFF34F8FBFF36F8F00BF00BFFEE787
:101D2000704700BF502080F31188BFF34F8FBFF37F
:101D30006F8F00BF43480068401C42490860084656
:101D40000068012813D14248001D0068C0B208B9DC
:101D5000012000E0002050B900BF502080F311881E
:101D6000BFF34F8FBFF36F8F00BF00BFFEE7704719
:101D70003448006850B900BF502080F31188BFF389
:101D80004F8FBFF36F8F00BF00BFFEE72D48006885
:101D9000401E2C4908600846006820B9002080F3E6
:101DA000118800BF00BF704710B500BF502080F3FE
:101DB0001188BFF34F8FBFF36F8F00BF01F085FA1B
:101DC00020B14FF080502249091D086000BF00205B
:101DD00080F3118800BF10BD70B5FEF781FA04468C
:101DE000102C16D304F1E02090F8F0531B48007833
:101DF000854201DB012000E0002050B900BF5020E7
:101E000080F31188BFF34F8FBFF36F8F00BF00BF08
:101E1000FEE70F480C30006800F4E06010490968E4
:101E2000884201D8012000E0002050B900BF5020B6
:101E300080F31188BFF34F8FBFF36F8F00BF00BFD8
:101E4000FEE770BD4C000020291B000800000020A8
:101E500000ED00E071C20F4100E400E050000020FE
:101E60005400002034EF00E000F1080141604FF021
:101E7000FF31816000F10801C16001610021016052
:101E8000704700210161704742684A6093688B6027
:101E9000936859609160086103685B1C0360704738
:101EA00010B502460B685C1C0CB9106907E002F122
:101EB000080000E04068446824689C42FAD94468FD
:101EC0004C604C68A160886041600A611468641CC1
:101ED000146010BD01460A69D1E901309860D1E96A
:101EE000010358605068884201D188685060002022
:101EF00008611068401E1060106870472DE9F041BD
:101F000005460E4601272C4654B900BF502080F3E9
:101F10001188BFF34F8FBFF36F8F00BF00BFFEE785
:101F2000002C42D0E06B00283FD04FF0FF31E06B37
:101F3000B1FBF0F0216C884237D3FFF7F2FED4E911
:101F40000F12206801FB0200A0600020A06320683F
:101F50006060E06B401E226C216800FB0211E160B2
:101F6000FF2084F8440084F845009EB9206908B930
:101F7000012000E00020A8B904F1100002F007FAE7
:101F800080B14FF08050F6490860BFF34F8FBFF328
:101F90006F8F07E004F11000FFF766FF04F12400E3
:101FA000FFF762FFFFF7E4FE00E000270FB101201A
:101FB00000E0002050B900BF502080F31188BFF32B
:101FC0004F8FBFF36F8F00BF00BFFEE73846BDE8FD
:101FD000F0812DE9F04106460D4617469846069CCD
:101FE0000DB9246000E02760E663256401212046E6
:101FF000FFF784FF84F84C80BDE8F0812DE9F843B9
:1020000005460E4617460024E5B1601EB0FBF5F00C
:10201000B04217D305FB06F010F1510F12D805FBA3
:1020200006F808F15000FFF775FB0446B4B1A1466D
:1020300009F150093B464A46314628460094FFF7CD
:10204000C8FF0BE054B900BF502080F31188BFF3E4
:102050004F8FBFF36F8F00BF00BFFEE72046BDE884
:10206000F88370B50446FFF75CFE94F9455010E024
:10207000606A08B9012000E0002038B904F12400AA
:1020800002F085F918B102F010FB00E003E0681ED1
:1020900045B2002DECDC00BFFF2084F84500FFF7BF
:1020A00067FEFFF73EFE94F9445010E0206908B93E
:1020B000012000E0002048B904F1100002F067F9A7
:1020C00008B102F0F2FA681E45B200E001E0002D0E
:1020D000ECDC00BFFF2084F84400FFF749FE70BD30
:1020E00070B50546FFF71DFEA86BE96B884201D16C
:1020F000012400E00024FFF73BFE204670BD2DE9DF
:10210000F04104460F4615464FF00008A66B206CC0
:1021100048B9206800282CD1A06802F064FB8046F2
:102120000020A06025E07DB93946226C606803F08C
:102130002FFC216C606808446060D4E9010188428A
:1021400017D32068606014E03946226CE06803F021
:102150001FFC216CE068411AE1602168E068884258
:1021600003D2216CA068411AE160022D01D106B1B1
:10217000761E701CA0634046BDE8F0812DE9FF4348
:1021800083B0064688461D464FF00009344654B9D0
:1021900000BF502080F31188BFF34F8FBFF36F8FC4
:1021A00000BF00BFFEE7B8F1000F01D1206C08B9F5
:1021B000012000E0002050B900BF502080F31188BA
:1021C000BFF34F8FBFF36F8F00BF00BFFEE7022D3D
:1021D00002D1E06B012801D1012000E0002050B9BC
:1021E00000BF502080F31188BFF34F8FBFF36F8F74
:1021F00000BF00BFFEE702F077FA08B9059808B9FA
:10220000012000E0002050B900BF502080F3118869
:10221000BFF34F8FBFF36F8F00BF00BFFEE700BF5C
:10222000FFF77FFDA06BE16B884201D3022D28D11F
:102230002A4641462046FFF762FF0746606A08B912
:10224000012000E0002068B904F1240002F09FF8AA
:1022500088B14FF0805042490860BFF34F8FBFF301
:102260006F8F08E03FB14FF080503D490860BFF3E9
:102270004F8FBFF36F8FFFF77BFD012007B0BDE8E5
:10228000F083059818B9FFF773FD0020F6E7B9F160
:10229000000F04D101A802F0BDF94FF00109FFF7CA
:1022A00067FD01F01EFAFFF73CFD94F94400401C65
:1022B00010B9002084F8440094F94500401C10B97E
:1022C000002084F84500FFF753FD05A901A802F09E
:1022D000A8F9F0B92046FFF703FFA0B104F1100000
:1022E000059901F0C4FF2046FFF7BBFE01F0E3F8BB
:1022F000002895D14FF0805019490860BFF34F8FE7
:10230000BFF36F8F8CE72046FFF7ABFE01F0D3F8E9
:1023100086E72046FFF7A5FE01F0CDF80020ADE7E7
:1023200010B5044654B10020A06020600021E16097
:1023300000231A4619462046FFF720FF10BD2DE95D
:10234000F041044601260027224600210120FFF724
:1023500055FE05462846FFF7E3FF2846BDE8F08115
:1023600004ED00E070B505462C4654B900BF50207E
:1023700080F31188BFF34F8FBFF36F8F00BF00BF93
:10238000FEE702F0A1F9A16888420CD1E068401E86
:10239000E060E06828B900231A4619462046FFF796
:1023A000EDFE012600E00026304670BD01464A6A77
:1023B00022B10A6B1268C2F1050000E000207047EC
:1023C00070B50546FFF7ADFCA86B08B9012400E025
:1023D0000024FFF7CDFC204670BD2DE9F34182B00B
:1023E000054600272C46B84654B900BF502080F35C
:1023F0001188BFF34F8FBFF36F8F00BF00BFFEE7A1
:10240000206C08B9012000E0002050B900BF502026
:1024100080F31188BFF34F8FBFF36F8F00BF00BFF2
:10242000FEE702F061F908B9039808B9012000E05D
:10243000002050B900BF502080F31188BFF34F8FA8
:10244000BFF36F8F00BF00BFFEE700BFFFF769FC5F
:10245000A66BFEB1701EA063206810B902F0E0FA0E
:10246000A060206908B9012000E0002060B904F1F3
:10247000100001F08CFF38B14FF08050F649086031
:10248000BFF34F8FBFF36F8FFFF772FC012004B0D3
:10249000BDE8F081039818B9FFF76AFC0020F6E761
:1024A0001FB9684602F0B6F80127FFF761FC01F09A
:1024B00018F9FFF736FC94F94400401C10B90020CD
:1024C00084F8440094F94500401C10B9002084F8B9
:1024D0004500FFF74DFC03A9684602F0A2F840BB97
:1024E0002046FFF76DFFF0B1206838B9FFF719FCFF
:1024F000A06802F005F98046FFF73AFC04F12400D9
:10250000039901F0B4FE2046FFF7ABFD00F0D3FFC6
:1025100000289BD14FF08050CF490860BFF34F8F08
:10252000BFF36F8F92E72046FFF79BFD00F0C3FFDC
:102530008CE72046FFF795FD00F0BDFF2046FFF732
:102540003FFF002882D0B8F1000F0BD0FFF7E9FB66
:102550002046FFF72BFF06463146A06802F0B8F987
:10256000FFF706FC002092E72DE9F04106460F46F2
:10257000344654B900BF502080F31188BFF34F8F09
:10258000BFF36F8F00BF00BFFEE702F09DF8A168A8
:10259000884204D1E068401CE060012508E039462B
:1025A0002046FFF71AFF054615B1E068401CE060C1
:1025B0002846BDE8F08170B505460E46002455B1A9
:1025C000AE4208D8022200212846FFF717FD044634
:1025D0006CB1A6630BE054B900BF502080F31188A2
:1025E000BFF34F8FBFF36F8F00BF00BFFEE72046E2
:1025F00070BD2DE9FC5F80468B4691461E464446E1
:1026000054B900BF502080F31188BFF34F8FBFF340
:102610006F8F00BF00BFFEE7BBF1000F01D1206C40
:1026200008B9012000E0002050B900BF502080F31D
:102630001188BFF34F8FBFF36F8F00BF00BFFEE75E
:10264000022E02D1E06B012801D1012000E0002020
:1026500050B900BF502080F31188BFF34F8FBFF3F4
:102660006F8F00BF00BFFEE7FFF7B6FB00BF502132
:10267000EFF3118081F31188BFF34F8FBFF36F8F9A
:1026800000BF0546A06BE16B884201D3022E3CD10E
:1026900094F94570A06B0190324659462046FFF7E9
:1026A0002EFD781C88B9606A08B9012000E000207E
:1026B00050B904F1240001F06AFE28B1B9F1000F0D
:1026C00002D00120C9F800001CE000BF01F096FC18
:1026D00000900098874214D27F2F01D0012000E0A3
:1026E000002050B900BF502080F31188BFF34F8FF6
:1026F000BFF36F8F00BF00BFFEE7781C40B284F8C5
:10270000450000BF4FF0010A01E04FF0000A00BF92
:1027100085F3118800BF5046BDE8FC9F2DE9F05FAE
:10272000074688463C4654B900BF502080F31188C4
:10273000BFF34F8FBFF36F8F00BF00BFFEE7206C6A
:1027400008B9012000E0002050B900BF502080F3FC
:102750001188BFF34F8FBFF36F8F00BF00BFFEE73D
:10276000206808B9A06808B9012000E0002050B92D
:1027700000BF502080F31188BFF34F8FBFF36F8FDE
:1027800000BF00BFFEE7FFF727FB00BF5021EFF3BC
:10279000118081F31188BFF34F8FBFF36F8F00BF9C
:1027A0000546D4F838A0E06B504537D994F9456018
:1027B0000AF10100A063701C88B9606A08B90120A1
:1027C00000E0002038BB04F1240001F0E0FD10B36C
:1027D000B8F1000F1FD00120C8F800001BE000BFB7
:1027E00001F00CFC83465E4514D27F2E01D00120FF
:1027F00000E0002050B900BF502080F31188BFF3E3
:102800004F8FBFF36F8F00BF00BFFEE7701C40B259
:1028100084F8450000BF4FF0010901E04FF00009C6
:1028200000BF85F3118800BF4846BDE8F09F70B532
:1028300004460D46206C70B1216CE0680144E160F3
:10284000D4E90210884201D32168E1602846226C55
:10285000E16803F09DF870BD04ED00E02DE9F7415B
:1028600083B005460E464FF000082C4654B900BF11
:10287000502080F31188BFF34F8FBFF36F8F00BFDD
:1028800000BFFEE70EB9206C08B9012000E000206F
:1028900050B900BF502080F31188BFF34F8FBFF3B2
:1028A0006F8F00BF00BFFEE701F01EFF08B905985B
:1028B00008B9012000E0002050B900BF502080F38B
:1028C0001188BFF34F8FBFF36F8F00BF00BFFEE7CC
:1028D00000BFFFF726FAA76BF7B131462046FFF796
:1028E000A6FF781EA063206908B9012000E000203F
:1028F00060B904F1100001F04AFD38B14FF080508A
:10290000FC490860BFF34F8FBFF36F8FFFF730FABA
:10291000012006B0BDE8F081059818B9FFF728FA44
:102920000020F6E7B8F1000F04D101A801F072FE13
:102930004FF00108FFF71CFA00F0D3FEFFF7F1F9A2
:1029400094F94400401C10B9002084F8440094F924
:102950004500401C10B9002084F84500FFF708FA34
:1029600005A901A801F05DFEF0B92046FFF728FD9A
:10297000A0B104F12400059901F079FC2046FFF78D
:1029800070FB00F098FD0028A3D14FF08050D9498A
:102990000860BFF34F8FBFF36F8F9AE72046FFF7B2
:1029A00060FB00F088FD94E72046FFF75AFB00F03B
:1029B00082FD2046FFF704FD00288AD00020A8E70A
:1029C0002DE9F74382B005460E464FF000082C462D
:1029D00054B900BF502080F31188BFF34F8FBFF36D
:1029E0006F8F00BF00BFFEE70EB9206C08B9012051
:1029F00000E0002050B900BF502080F31188BFF3E1
:102A00004F8FBFF36F8F00BF00BFFEE701F06CFE7A
:102A100008B9049808B9012000E0002050B900BFAF
:102A2000502080F31188BFF34F8FBFF36F8F00BF2B
:102A300000BFFEE700BFFFF774F9D4F83890B9F192
:102A4000000F1ED0E76831462046FFF7F0FEE76032
:102A5000606A08B9012000E0002060B904F1240098
:102A600001F095FC38B14FF08050A2490860BFF3E7
:102A70004F8FBFF36F8FFFF77BF9012005B0BDE8E3
:102A8000F083049818B9FFF773F90020F6E7B8F15E
:102A9000000F04D1684601F0BDFD4FF00108FFF7BB
:102AA00067F900F01EFEFFF73CF994F94400401C62
:102AB00010B9002084F8440094F94500401C10B976
:102AC000002084F84500FFF753F904A9684601F097
:102AD000A8FDF0B92046FFF773FCA0B104F1240073
:102AE000049901F0C4FB2046FFF7BBFA00F0E3FCB9
:102AF0000028A0D14FF080507E490860BFF34F8F6F
:102B0000BFF36F8F97E72046FFF7ABFA00F0D3FCD7
:102B100091E72046FFF7A5FA00F0CDFC2046FFF72D
:102B20004FFC002887D00020A8E72DE9F84F074682
:102B30008A4690463C4654B900BF502080F3118825
:102B4000BFF34F8FBFF36F8F00BF00BFFEE7BAF137
:102B5000000F01D1206C08B9012000E0002050B91D
:102B600000BF502080F31188BFF34F8FBFF36F8FEA
:102B700000BF00BFFEE7FFF72FF900BF5021EFF3C2
:102B8000118081F31188BFF34F8FBFF36F8F00BFA8
:102B90000546D4F838B0BBF1000F3CD094F944603E
:102BA00051462046FFF743FEABF10100A063701CC5
:102BB00088B9206908B9012000E0002040BB04F179
:102BC000100001F0E4FB18B3B8F1000F20D0012091
:102BD000C8F800001CE000BF01F010FA0090009857
:102BE000864214D27F2E01D0012000E0002050B98F
:102BF00000BF502080F31188BFF34F8FBFF36F8F5A
:102C000000BF00BFFEE7701C40B284F8440000BF64
:102C10004FF0010901E04FF0000900BF85F3118872
:102C200000BF4846BDE8F88F2DE9F04706468846C4
:102C3000344654B900BF502080F31188BFF34F8F42
:102C4000BFF36F8F00BF00BFFEE7B8F1000F01D1E7
:102C5000206C08B9012000E0002050B900BF5020CE
:102C600080F31188BFF34F8FBFF36F8F00BF00BF9A
:102C7000FEE7206C08B1012000E0002050B900BF41
:102C8000502080F31188BFF34F8FBFF36F8F00BFC9
:102C900000BFFEE7FFF7A0F800BF5021EFF311805F
:102CA00081F31188BFF34F8FBFF36F8F00BF0546CD
:102CB000A06B48B1D4F80C9041462046FFF7B7FD11
:102CC000C4F80C90012700E0002700BF85F31188AD
:102CD00000BF3846BDE8F08770B5044664B900BF50
:102CE000502080F31188BFF34F8FBFF36F8F00BF69
:102CF00000BFFEE704ED00E0FFF713F8A56BFFF758
:102D000037F8284670BD70B50446254655B900BF52
:102D1000502080F31188BFF34F8FBFF36F8F00BF38
:102D200000BFFEE7FEF7FDFFD5E90E10461AFFF7DC
:102D30001FF8304670BD10B501460A4652B900BFB3
:102D4000502383F31188BFF34F8FBFF36F8F00BF02
:102D500000BFFEE7906B10BD014651B900BF502285
:102D600082F31188BFF34F8FBFF36F8F00BF00BF97
:102D7000FEE700200EE06B4A02EBC00252688A4276
:102D800007D10022674B43F8302003EBC0035A60A1
:102D900002E0401C0828EED300BF704770B504461F
:102DA000254655B900BF502080F31188BFF34F8FDF
:102DB000BFF36F8F00BF00BFFEE72846FFF7CCFFD1
:102DC0002846FEF7DCFD70BD0146886C70478164C3
:102DD0007047014691F84C0070470146086C7047F7
:102DE0000146C86B704710B501460A4652B900BF8C
:102DF000502383F31188BFF34F8FBFF36F8F00BF52
:102E000000BFFEE7936B0BB9012000E0002010BD6E
:102E100010B501460A4652B900BF502383F311880A
:102E2000BFF34F8FBFF36F8F00BF00BFFEE7936B01
:102E3000D46BA34201D1012000E0002010BD30B5C9
:102E400002460B46002152B900BF502484F311887A
:102E5000BFF34F8FBFF36F8F00BF00BFFEE7BBB163
:102E6000002012E02F4C04EBC0046468944203D1AC
:102E70002C4C04EBC0010AE031B92A4C54F8304024
:102E800014B9284C04EBC001401C0828EAD300BF49
:102E900009B10B604A6030BD10B50246002052B93E
:102EA00000BF502383F31188BFF34F8FBFF36F8FA1
:102EB00000BF00BFFEE700210AE01A4B03EBC1038D
:102EC0005B68934203D1174B53F8310002E0491C71
:102ED0000829F2D300BF10BD2DE9F04105460E468A
:102EE00017462C46FEF71DFF94F94400401C10B90C
:102EF000002084F8440094F94500401C10B90020DB
:102F000084F84500FEF734FFA06B28B93A463146F5
:102F100004F1240001F00AFA2046FFF7A2F8BDE808
:102F2000F0810000742D01202DE9F05F82460F46EC
:102F300090469B460A9E0C9C4FEA8801A522206B76
:102F400002F06BFDA8F10100216B01EB800929F073
:102F5000070909F0070008B9012000E0002050B976
:102F600000BF502080F31188BFF34F8FBFF36F8FE6
:102F700000BF00BFFEE77FB1002507E0795D04F1E7
:102F800034004155785D00B902E06D1C0A2DF5D37F
:102F900000BF00213D200155052E01D2012000E097
:102FA000002050B900BF502080F31188BFF34F8F2D
:102FB000BFF36F8F00BF00BFFEE7052E00D30426CE
:102FC000E662A664201DFEF75CFF04F11800FEF720
:102FD00058FF2461C6F10500A06164625A4651465B
:102FE0004846FEF7BFFD20600B9808B10B980460BF
:102FF000BDE8F09F2DE9FF5F0746884616469946D3
:10300000DDE90EABB000FEF785FB054675B1582033
:10301000FEF780FB04462CB15821204602F027FD24
:10302000256304E02846FEF7AAFC00E0002454B122
:1030300000204B4632464146CDE900ABCDE9024087
:103040003846FFF771FF204604B0BDE8F09F10B589
:10305000002407E004EB8401F64A02EB8100FEF74E
:1030600003FF641C052CF5D3F348FEF7FDFEF3487F
:10307000FEF7FAFEF248FEF7F7FEF248FEF7F4FE1E
:10308000F148FEF7F1FEEC48F0490860EB48F049E2
:10309000086010BD10B50446FEF743FEED48006819
:1030A000401CEC490860EC48006840B9EA480460FC
:1030B0000846006801280DD1FFF7C9FF0AE0E7487C
:1030C000006838B9E4480068C06AE16A884201D8FB
:1030D000E1480460E2480068401CE1490860084695
:1030E0000068206400BF94F82C1001208840DD495E
:1030F00009680843DB49086000BFE16A01EB810110
:10310000CC4A02EB81014868A0608268E260211D20
:10311000826851608160E16A01EB8101C54A02EB7E
:1031200081026261E16A01EB8101C24A52F8211019
:10313000491CE26A02EB8202BE4B43F8221000BF38
:1031400000BFFEF715FEC548006878B100BFC24851
:103150000068C06AE16A884207D24FF08050C249D5
:103160000860BFF34F8FBFF36F8F00BF10BD2DE915
:10317000FC5F06460F4690469946DDE90CAB4B4690
:10318000424639463046CDE900ABFFF733FF0546EE
:1031900025B12846FFF77EFF012401E04FF0FF3400
:1031A0002046BDE8FC9F10B50446206BFEF7E7FB08
:1031B0002046FEF7E4FB10BDA4480068006808B98B
:1031C000012000E0002020B14FF0FF30A749086047
:1031D00005E09E480068C0680068A4490860704720
:1031E0002DE9F04105460026FEF79BFD15B99A48EA
:1031F000006800E028460446201DFEF76BFE88B9F3
:1032000000BFE06A00EB80008A4951F8200040B915
:1032100094F82C1001208840924909688143914814
:10322000016000BFA06A18B104F11800FEF752FE59
:103230008B480068401C8A490860874800688442BF
:1032400001D1012000E0002007468448006858B101
:1032500057B1211D7B48FEF717FE85480068401CCA
:1032600083490860012606E07A480068401E7949D3
:103270000860FFF7A1FFFEF77BFD012E02D020467C
:10328000FFF791FF75480068E8B173480068844211
:1032900019D17848006808B9012000E0002050B931
:1032A00000BF502080F31188BFF34F8FBFF36F8FA3
:1032B00000BF00BFFEE74FF080506B490860BFF3CE
:1032C0004F8FBFF36F8FBDE8F0812DE9F0414FF0D4
:1032D00000086848006800287DD167480068451CE0
:1032E000654805601DBB00BF58480068006808B904
:1032F000012000E0002050B900BF502080F3118869
:10330000BFF34F8FBFF36F8F00BF00BFFEE74F4883
:1033100007684F4800684D4908604D4807605748A6
:103320000068401C55490860FFF746FF00BF4F4842
:10333000006885427CD300BF44480068006808B933
:10334000012000E0002020B14FF0FF304749086025
:1033500096E03E480068C068C4686668B54202D21C
:10336000424806608CE000BF6069D4E902128A60BE
:10337000D4E902214A60211D42688A4201D1E168F4
:103380004160002262610168491E016000BFA06ABD
:10339000A0B100BFA06AD4E907128A60D4E907216E
:1033A0004A6004F1180142688A4201D1216A4160F1
:1033B0000022A2620168491E016000BF00BF94F8AC
:1033C0002C100120884027490968084325490860D6
:1033D00000BFE16A00E066E001EB8101154A02EB03
:1033E00081014868A0608268E260211D82685160A6
:1033F0008160E16A01EB81010E4A02EB81026261A8
:10340000E16A01EB81010B4A52F82110491CE26A82
:1034100002EB8202074B43F8221000BF00BF0E49A7
:10342000E06A0968C96A884286D94FF0010883E7D3
:1034300027E00000B42D0120182E01202C2E0120A1
:10344000402E0120542E0120682E01205C00002017
:103450006000002068000020580000207400002058
:10346000840000207000002004ED00E088000020AF
:1034700064000020940000206C00002080000020E8
:1034800000BFF9480068C06A00EB8000F74951F8B6
:103490002000012801D94FF00108F548006808B163
:1034A0004FF0010804E0F3480068401CF14908604F
:1034B0004046BDE8F0812DE9F04100240027FEF7E9
:1034C00030FC0025EC48006808B1012000E0002035
:1034D00050B900BF502080F31188BFF34F8FBFF366
:1034E0006F8F00BF00BFFEE7E3480068401EE2495F
:1034F00008600846006800287ED1E048006800287F
:103500007AD064E0DE48C068C46800BFA06AD4E92D
:1035100007128A60D4E907214A6004F11801426861
:103520008A4201D1216A41600022A2620168491EDB
:10353000016000BF00BF6069D4E902128A60D4E96B
:1035400002214A60211D42688A4201D1E16841603E
:10355000002262610168491E016000BF00BF94F84B
:103560002C1001208840C74909680843C5490860F4
:1035700000BFE16A01EB8101BC4A02EB81014868AE
:10358000A0608268E260211D826851608160E16A0A
:1035900001EB8101B54A02EB81026261E16A01EB54
:1035A0008101B24A52F82110491CE26A02EB820200
:1035B000AE4B43F8221000BF00BFAB49E06A096878
:1035C000C96A884203D90120A94941F82500AC48BD
:1035D000006808B9012000E00020002892D00CB15A
:1035E000FFF7EAFDA34806687EB100BFFFF76DFE56
:1035F00028B101209E4900E017E041F82500761E21
:10360000002EF3D100209B490860994850F825000E
:1036100058B1012700BF9448006838079A490860EC
:10362000BFF34F8FBFF36F8F00BFFEF7A1FB38468C
:10363000BDE8F0812DE9F04705460E46934807683E
:103640009348D0F800809348D0F8009086480068EE
:10365000001DFEF73FFC50B98348006890F82C101D
:103660000120884087490968814386480160681CB9
:10367000E0B9DEB100BF884948687B4909688860C5
:10368000794982680968CA6077490968091D8268B2
:10369000516075490968091D81607F4A724909684E
:1036A0004A6111460968491C116018E07C196E488E
:1036B00000684460BC4206D26B480168091D484658
:1036C000FEF7EEFB0BE068480168091D4046FEF777
:1036D000E7FB72480068844201D270480460BDE88C
:1036E000F08765480068401C6349086070472DE911
:1036F000F04704460F464FF0000954B900BF502070
:1037000080F31188BFF34F8FBFF36F8F00BF00BFEF
:10371000FEE70FB1012000E0002050B900BF5020AB
:1037200080F31188BFF34F8FBFF36F8F00BF00BFCF
:10373000FEE7FFF7D6FF554806684F4800680128A6
:1037400000D100E0002050B900BF502080F3118864
:10375000BFF34F8FBFF36F8F00BF00BFFEE720683E
:10376000C5192068B04207D92068A8420BD9B542D4
:1037700009D94FF0010906E02068A84201D8B542F6
:1037800001D94FF001092560B9F1000F03D0A81B42
:103790000021FFF74FFFFFF78EFE8046B8F1000FC4
:1037A00007D14FF0805038490860BFF34F8FBFF307
:1037B0006F8F4846BDE8F08770B504460025D4B148
:1037C000FFF78FFF2C480068012800D100E000209F
:1037D00050B900BF502080F31188BFF34F8FBFF363
:1037E0006F8F00BF00BFFEE700212046FFF722FFDA
:1037F000FFF761FE05463DB94FF080502249086051
:10380000BFF34F8FBFF36F8F70BD2DE9F0470746B1
:103810003E4656B900BF502080F31188BFF34F8F4A
:10382000BFF36F8F00BF00BFFEE70F4800688642FE
:1038300001D1002451E0FEF774FA7569D6F82880AA
:103840001348D0F800901348D0F800A0FEF790FA83
:103850000B48804501D101243FE04D4501D055453D
:103860001ED1022439E0000058000020B42D0120B0
:103870007C000020780000209400002068000020D8
:10388000402E01207000002004ED00E06C000020BC
:103890005C00002060000020682E012088000020CD
:1038A000F948854212D1B06A70B90324002007E0BC
:1038B00006F15401095C012901D1022402E0401CF7
:1038C0000128F5DB00BF08E0022406E0EF4885424E
:1038D00000D00DB9042400E001242046BDE8F087A3
:1038E00070B50446FEF71DFA14B9E948006800E017
:1038F00020460646F56AFEF73BFA284670BD2DE9DC
:10390000F0410546FEF768FA00BF5021EFF3118041
:1039100081F31188BFF34F8FBFF36F8F00BF044651
:1039200015B9DB48006800E028460746FE6A00BF7C
:1039300084F3118800BF3046BDE8F08170B50446BD
:10394000FEF7EFF914B9D248006800E020460646B9
:10395000B56CFEF70DFA284670BD2DE9F04105461D
:10396000FEF73AFA00BF5021EFF3118081F311887E
:10397000BFF34F8FBFF36F8F00BF044615B9C44824
:10398000006800E028460746BE6C00BF84F311883B
:1039900000BF3046BDE8F0812DE9F04780460D4676
:1039A0004FF00009052D01D2012000E0002050B9A0
:1039B00000BF502080F31188BFF34F8FBFF36F8F8C
:1039C00000BF00BFFEE7052D00D30425FEF7A9F9CF
:1039D000B8F1000F02D1AE48006800E0404604464E
:1039E000A66CAE427CD0B5420BD9A948006884428F
:1039F00011D0A7480068C06AA8420CD24FF0010954
:103A000009E0A3480068844201D1012000E00020C1
:103A1000012800D18146E76AE16AA06C884202D0A1
:103A2000E06AA84200D2E562A564A06900F0004007
:103A300010B9C5F10500A06107EB8701954A02EBBB
:103A400081016069884201D1012000E00020C8B3F3
:103A5000201DFEF73FFA30B90120B8408E490968B1
:103A600081438D48016000BF94F82C1001208840EC
:103A70008949096808438849086000BFE16A01EB89
:103A80008101844A02EB81014868A0608268E2609B
:103A9000211D826851608160E16A01EB81017D4AEC
:103AA00002EB81026261E16A01EB8101794A52F81D
:103AB0002110491CE26A02EB8202764B43F8221085
:103AC00000BF00BFB9F1000F09D000BF4FF0805018
:103AD00072490860BFF34F8FBFF36F8F00BF00BF05
:103AE000FEF746F9BDE8F0876D48006818B101207F
:103AF0006C49086036E000206A49086000BF6648EB
:103B00000068B0FA80F0C0F11F0101EB8100614A4A
:103B100052F8200008B1012000E0002050B900BF99
:103B2000502080F31188BFF34F8FBFF36F8F00BF1A
:103B300000BFFEE700BF01EB8102564B03EB8200A2
:103B400042685268426000F108024368934201D122
:103B5000C26842604268D2684D4B1A6000BF00BF25
:103B600018460068704770B50546FEF7DAF815B9D3
:103B70004748006800E028460446201DFEF7AAF9E1
:103B800088B900BFE06A00EB8000424951F820008C
:103B900040B994F82C10012088403F4909688143BE
:103BA0003D48016000BFA06A18B104F11800FEF79B
:103BB00091F9211D3448FEF767F9002009E004F16E
:103BC0005401095C012903D1002204F154010A5473
:103BD000401C0128F3DBFEF7CBF83348006828B11E
:103BE000FEF79FF8FFF7E8FAFEF7C2F828480068EA
:103BF000844229D12C480068D0B12948006808B90E
:103C0000012000E0002050B900BF502080F311884F
:103C1000BFF34F8FBFF36F8F00BF00BFFEE74FF0C2
:103C200080501E490860BFF34F8FBFF36F8F0BE0CA
:103C3000154806681D480068864203D100201449D3
:103C4000086001E0FFF750FF70BD10B50246002389
:103C5000114652B900BF502080F31188BFF34F8F37
:103C6000BFF36F8F00BF00BFFEE7074C4869A0425B
:103C700001D1012000E0002098B30D4C886AA042D9
:103C800018D1012017E00000682E0120542E0120D9
:103C900058000020B42D01207000002004ED00E049
:103CA000940000207C0000207400002068000020A8
:103CB000402E01200020A0B9886A08B9012000E048
:103CC000002070B10123002007E001F15404245CBE
:103CD000012C01D1002302E0401C0128F5DB00BFCC
:103CE00000BF184610BD70B505462C4655B900BF3B
:103CF000502080F31188BFF34F8FBFF36F8F00BF49
:103D000000BFFEE7F848006884424CD0002C4AD03F
:103D1000FEF707F82046FFF798FF002841D0201D46
:103D2000FEF7D8F800BF94F82C1001208840EF4926
:103D300009680843ED49086000BFE16A01EB8101B1
:103D4000EB4A02EB81014868A0608268E260211DB5
:103D5000826851608160E16A01EB8101E44A02EB13
:103D600081026261E16A01EB8101E14A52F82110AE
:103D7000491CE26A02EB8202DD4B43F8221000BFCD
:103D800000BF00BFD8480068C06AE16A884207D215
:103D90004FF08050D7490860BFF34F8FBFF36F8F4C
:103DA00000BFFDF7E5FF70BD2DE9F0410646002795
:103DB000344656B900BF502080F31188BFF34F8FAF
:103DC000BFF36F8F00BF00BFFEE7FEF705F800BF2F
:103DD0005021EFF3118081F31188BFF34F8FBFF3B0
:103DE0006F8F00BF05462046FFF72FFF002844D005
:103DF000C148006800283BD1BB49E06A0968C96A2C
:103E0000884203D901270120BC490860201DFEF724
:103E100061F800BF94F82C1001208840B34909686C
:103E20000843B249086000BFE16A01EB8101B04A72
:103E300002EB81014868A0608268E260211D82680F
:103E400051608160E16A01EB8101A94A02EB8102C4
:103E50006261E16A01EB8101A54A52F82110491C17
:103E6000E26A02EB8202A24B43F8221000BF04E098
:103E700004F11801A248FEF707F800BF85F3118886
:103E800000BF3846BDE8F08110B516E0FDF749FFE8
:103E90009C48C068C468201DFEF71CF89A4800685A
:103EA000401E9949086099480068401E974908607B
:103EB000FDF75EFF2046FFF776F99448006800287A
:103EC000E4D110BD00BFFFF7DFFF8948006801287B
:103ED000F9D94FF0805087490860BFF34F8FBFF387
:103EE0006F8FF0E7F0B585B001260027002408E0C9
:103EF00087A0005D02A9085502A8005D00B902E094
:103F0000641C0A2CF4DB00BF002510E0824F8348BC
:103F100000EB850000210B468222CDE9001002A9AA
:103F20003846FFF724F9064606B902E06D1C012D5C
:103F3000ECDB00BF304605B0F0BD10B5FFF7D2FF97
:103F40000446012C02D101F02BFB0446012C15D1B3
:103F500000BF502080F31188BFF34F8FBFF36F8FE6
:103F600000BF4FF0FF306E49086001206D490860C6
:103F700000206D490860FDF71AFE10E0601C08B1D2
:103F8000012000E0002050B900BF502080F31188CC
:103F9000BFF34F8FBFF36F8F00BF00BFFEE76348D3
:103FA000006810BD70B501F0FEFB0546FFF718F97B
:103FB000002405E0594951F82400FFF711F9641C69
:103FC000012CF7DBFFF760FF00BF502080F3118862
:103FD000BFF34F8FBFF36F8F00BF002051490860C0
:103FE000FDF78AFE70BD50490868704770B5FDF74F
:103FF000F3FE00254C480468204670BD4248006826
:104000007047014611B93848006800E0084602468A
:1040100052B900BF502080F31188BFF34F8FBFF318
:104020006F8F00BF00BFFEE702F13400704701460A
:10403000002001E0491C401C0A78A52AFAD080081B
:1040400070472DE9F04107460C4690461E4617B9C9
:104050002548006800E038460546256005F1340033
:104060006060E86A2061286BE061286CA060A86C41
:1040700060610020A061052E5AD01B48006885426F
:1040800001D1012000E00020012802D1002020738E
:1040900052E02673032E17D1FFF723FBA86A10B155
:1040A000022020730EE0002008E005F15401095CB5
:1040B000012902D10221217302E0401C0128F4DB16
:1040C00000BF00BFFFF7F7F9FDF72BFE0C49A86A08
:1040D000884201D1012000E0002008B101202073B6
:1040E000FDF746FE28E00000580000207000002088
:1040F000B42D012004ED00E0940000207C0000209D
:10410000402E0120542E0120680000206400002071
:1041100049444C4500000000C53E00088C000020CA
:1041200088000020740000206C0000209000002017
:104130002846FFF76AFB2073B8F1000F04D0286B04
:10414000FFF775FF206201E000202062BDE8F081EA
:104150002DE9F04707460C469046002604F1080971
:10416000B246206880B1E5680CE0D5F80CA006EBFB
:10417000C60007EB8001434601225046FFF761FF6E
:10418000761C6D684D45F0D13046BDE8F0872DE9CD
:10419000F04105468846164600240527FFF7A1FA98
:1041A000FE480068804539D300BF7F1E07EB8702B9
:1041B000FB4B03EB820104EBC40205EB82000122FE
:1041C000FFF7C6FF0444002FEFD104EBC40105EB59
:1041D00081000222F3490968FFF7BAFF044404EBA7
:1041E000C40105EB81000222EF490968FFF7B0FF27
:1041F000044404EBC40105EB81000422EB49FFF702
:10420000A7FF044404EBC40105EB81000322E84945
:10421000FFF79EFF04440EB100203060FFF74BF91A
:104220002046BDE8F08170B50446E248006808B950
:10423000012000E0002050B900BF502080F3118819
:10424000BFF34F8FBFF36F8F00BF00BFFEE7FFF7D5
:1042500048FAFDF766FDD84800682044D649086052
:10426000FDF786FDFFF727F90546284670BD70B5B6
:1042700004460D4654B900BF502080F31188BFF3A7
:104280004F8FBFF36F8F00BF00BFFEE7CB480168C1
:1042900018312046FDF704FE01212846FFF7CAF930
:1042A00070BD70B504460D46164654B900BF502087
:1042B00080F31188BFF34F8FBFF36F8F00BF00BF34
:1042C000FEE7BC48006808B1012000E0002050B9BA
:1042D00000BF502080F31188BFF34F8FBFF36F8F63
:1042E00000BF00BFFEE745F00040B449096888619F
:1042F00000BF6068B1490968C861B049826809684F
:104300000A62AE490968183182685160AB49096890
:1043100018318160A94909688C622168491C2160B3
:1043200000BF01213046FFF785F970BD70B5044626
:104330000E46154654B900BF502080F31188BFF3D4
:104340004F8FBFF36F8F00BF00BFFEE700BF6068F5
:104350009A490968C8619949826809680A62974957
:104360000968183182685160944909681831816080
:10437000924909688C622168491C216000BF0DB117
:104380004FF0FF3629463046FFF754F970BD70B53F
:104390000346D868C16851B900BF502080F3118826
:1043A000BFF34F8FBFF36F8F00BF00BFFEE700BFAB
:1043B000886AD1E90745A560D1E90754656001F134
:1043C00018044568A54201D10C6A446000258D623D
:1043D0000468641E046000BF76480068002842D16B
:1043E00000BF4869D1E90245A560D1E90254656082
:1043F0000C1D4568A54201D1CC68446000254D6183
:104400000468641E046000BF00BF91F82C400120C6
:10441000A0406B4C24682043694C206000BFCC6AEC
:1044200004EB84045E4D05EB840460688860856855
:10443000CD600C1D85686C608460CC6A04EB8404DC
:10444000574D05EB84054D61CC6A04EB8404544D53
:1044500055F82440641CCD6A05EB8505504E46F89E
:10446000254000BF11E000BF564C6068C8618568F8
:104470000D6201F1180485686C608460514D8D6295
:104480002C462468641C2C6000BF4C4CC86A24680D
:10449000E46AA04204D9012201204B4C206000E0D4
:1044A0000022104670BD70B502460B4641490968AE
:1044B00009B1012100E0002151B900BF502181F371
:1044C0001188BFF34F8FBFF36F8F00BF00BFFEE7B0
:1044D00043F000411160D06850B900BF502181F312
:1044E0001188BFF34F8FBFF36F8F00BF00BFFEE790
:1044F00000BF1169D2E90154AC60D2E901456C609A
:104500004C68944201D194684C60002414610C689A
:10451000641E0C6000BF00BF4169D0E90245A56080
:10452000D0E902546560041D4D68A54201D1C468FC
:104530004C60002545610C68641E0C6000BF00BF24
:1045400090F82C400121A1401D4C246821431C4CB3
:10455000216000BFC46A04EB8404114D05EB8404A0
:10456000616881608D68C560041D8D686C608C60B9
:10457000C46A04EB84040A4D05EB84054561C46AF2
:1045800004EB8404064D55F82440641CC56A05EB11
:104590008505034E46F8254000BF17E0680000205F
:1045A000B42D01205C00002060000020542E01206A
:1045B000682E012094000020780000205800002080
:1045C00070000020402E01207C00002000BFFE4C27
:1045D000C16A2468E46AA14202D90121FB4C21602E
:1045E00070BD10B5044654B900BF502080F3118847
:1045F000BFF34F8FBFF36F8F00BF00BFFEE7FDF724
:1046000090FBF34800682060F24800686060FDF7A6
:10461000AFFB10BDEE4909680160EE4909684160D1
:10462000704770B505460C4655B900BF502080F361
:104630001188BFF34F8FBFF36F8F00BF00BFFEE73E
:1046400054B900BF502080F31188BFF34F8FBFF3E0
:104650006F8F00BF00BFFEE7FDF763FBDD48026818
:104660006868131A2068401C08B9002619E0D84968
:1046700028680968884206D06868904203D80126F5
:10468000002020600DE02068984207D92068C01AF9
:1046900020602846FFF7BEFF002602E000202060D1
:1046A0000126FDF765FB304670BD0120C749086053
:1046B0007047014611B10A46506C00E00020704777
:1046C00008B1024651647047BF4908687047014607
:1046D0000020002903DB012901DA012200E0002289
:1046E0000AB1B94A10687047BB49096809B9012085
:1046F00005E0BA49096809B9022000E000207047C6
:1047000070B505462C460026002D6AD0AE49E06AF9
:104710000968C96A88425DD2A06900F0004028B9E2
:10472000A9480068C06AC0F10500A061E16A01EB18
:104730008101AB4A02EB81016069884201D101200D
:1047400000E0002000283FD0201DFDF7C3FB40B94A
:1047500094F82C1001208840A24909688143A1489F
:10476000016099480068C06AE06200BF94F82C10AC
:10477000012088409B49096808439A49086000BFA6
:10478000E16A01EB8101964A02EB81014868A06071
:104790008268E260211D826851608160E16A01EBFC
:1047A00081018F4A02EB81026261E16A01EB8101C2
:1047B0008B4A52F82110491CE26A02EB8202884BB4
:1047C00043F8221000BF03E07F480068C06AE0623F
:1047D000012606E07C49A06C0968C96A884200D2BB
:1047E0000126304670BD70B505462C460026002DCA
:1047F0006CD075480068844201D1012000E000209F
:1048000050B900BF502080F31188BFF34F8FBFF322
:104810006F8F00BF00BFFEE7E06C50B900BF5020B3
:1048200080F31188BFF34F8FBFF36F8F00BF00BFBE
:10483000FEE7E06C401EE064A16CE06A884245D06F
:10484000E06C002842D1201DFDF744FB40B994F8EC
:104850002C10012088406349096881436148016048
:10486000A06CE062E06AC0F10500A06100BF94F8AE
:104870002C10012088405B490968084359490860A9
:1048800000BFE16A01EB8101554A02EB81014868F2
:10489000A0608268E260211D826851608160E16AE7
:1048A00001EB81014E4A02EB81026261E16A01EB98
:1048B00081014B4A52F82110491CE26A02EB820244
:1048C000474B43F8221000BF00BF0126304670BDA1
:1048D0002DE9F04706460F4634464FF00109002EF9
:1048E00070D0E06C50B900BF502080F31188BFF346
:1048F0004F8FBFF36F8F00BF00BFFEE7A06CB842C1
:1049000001D23D4600E0A56CE06AA8427AD0E06C96
:10491000012877D12C480068844201D0012000E0B2
:10492000002050B900BF502080F31188BFF34F8F93
:10493000BFF36F8F00BF00BFFEE7D4F82C80E562A5
:10494000A06900F0004010B9C5F10500A06108EBB6
:104950008801234A02EB81016069884201D101206C
:1049600000E0002070B3201DFDF7B4FA40B994F8C0
:104970002C10012088401B490968814319480160B7
:1049800000BF94F82C10012088401649096808439C
:104990001449086000BFE16A01EB8101104A02EB93
:1049A00081014868A0608268E260211D82685160D0
:1049B0008160E16A01EB8101094A02EB81026261D7
:1049C000E16A11E01EE00000580000207C00002099
:1049D000800000206C000020740000209400002063
:1049E000B42D01207000002001EB8101F94A52F83A
:1049F0002110491CE26A02EB8202F64B43F82210B6
:104A000000BF00BFBDE8F087F34909688869F24933
:104A10000968C96AC1F10501EF4A126891617047DE
:104A2000ED49086810B1C16C491CC16470472DE99B
:104A3000F0470446884616464FF000090CB901209D
:104A400000E0002050B900BF502080F31188BFF370
:104A50004F8FBFF36F8F00BF00BFFEE7FEF741FE31
:104A6000FDF75FF9DC480068503050F8240030B999
:104A70000121D94800685430015506B18946FDF737
:104A800077F9B9F1010F03D101213046FEF7D2FDCC
:104A9000FEF711FD0746B9F1010F08D13FB94FF0FC
:104AA0008050CE490860BFF34F8FBFF36F8FFDF783
:104AB00038F9C9480068503050F824507DB1B8F139
:104AC000000F06D00021C4480068503040F8241080
:104AD00005E0681EC0490968503141F824000021F2
:104AE000BD48006854300155FDF742F92846BDE83D
:104AF000F0872DE9F05F0446884691461D46DDF8B3
:104B000028A04FF0000B0CB9012000E0002050B9A4
:104B100000BF502080F31188BFF34F8FBFF36F8F1A
:104B200000BF00BFFEE7FEF7DCFDFDF7FAF8AA487C
:104B300000685430005D022811D0A749096850313F
:104B400001EB8400016821EA080101600121A2480B
:104B5000006854300155BAF1000F00D08B46FDF7C4
:104B600007F9BBF1010F03D101215046FEF762FDA9
:104B7000FEF7A1FC0746BBF1010F08D13FB94FF08A
:104B8000805096490860BFF34F8FBFF36F8FFDF7DA
:104B9000C8F82DB190480068503050F824002860C3
:104BA0008D4800685430005D022801D0002609E0DD
:104BB00089490968503101EB8400016821EA090143
:104BC0000160012600218448006854300155FDF73A
:104BD000CFF83046BDE8F09F2DE9F05F07460D465F
:104BE00016469846DDF828A04FF0010B0DB90120BC
:104BF00000E0002050B900BF502080F31188BFF3BF
:104C00004F8FBFF36F8F00BF00BFFEE757B900BFE4
:104C1000502080F31188BFF34F8FBFF36F8F00BF19
:104C200000BFFEE73C46FDF77CF8BAF1000F05D067
:104C300004F1500050F82500CAF8000004F15400B7
:104C400010F8059002214155B8F1050F29D2DFE88F
:104C500008F027030D171C0004F1500050F8250040
:104C6000304304F1500141F825002DE004F15000DB
:104C700050F82500401C04F1500141F8250023E0C4
:104C800004F1500040F825601EE0B9F1020F04D095
:104C900004F1500040F8256001E04FF0000B13E0F4
:104CA00012E04F48006808B9012000E0002050B928
:104CB00000BF502080F31188BFF34F8FBFF36F8F79
:104CC00000BF00BFFEE700BF00BFB9F1010F63D115
:104CD00000BF6069D4E902128A60D4E902214A6007
:104CE000211D42688A4201D1E1684160002262616F
:104CF0000168491E016000BF00BF94F82C1001201C
:104D000088403849096808433649086000BFE16AAD
:104D100001EB81012F4A02EB81014868A0608268A3
:104D2000E260211D826851608160E16A01EB8101CE
:104D3000284A02EB81026261E16A01EB8101254AA6
:104D400052F82110491CE26A02EB8202214B43F81F
:104D5000221000BF00BFA06A08B9012000E00020B7
:104D600050B900BF502080F31188BFF34F8FBFF3BD
:104D70006F8F00BF00BFFEE700BF17480068C06A22
:104D8000E16A884207D24FF0805014490860BFF3AF
:104D90004F8FBFF36F8F00BFFCF7EAFF5846BDE8A7
:104DA000F09F2DE9F84F80460D4617469946DDF8ED
:104DB00028B001200090B8F1000F15D100BF50209D
:104DC00080F31188BFF34F8FBFF36F8F00BF00BF19
:104DD000FEE70000B42D01205800002004ED00E0A3
:104DE0006C000020700000200DB9012000E00020C0
:104DF00050B900BF502080F31188BFF34F8FBFF32D
:104E00006F8F00BF00BFFEE7FCF7E6FF444600BF20
:104E10005021EFF3118081F31188BFF34F8FBFF35F
:104E20006F8F00BF0646BBF1000F05D004F15000A4
:104E300050F82500CBF8000004F1540010F805A04C
:104E400002214155B9F1050F29D2DFE809F0270306
:104E50000D171C0004F1500050F82500384304F1F0
:104E6000500141F825002DE004F1500050F82500D4
:104E7000401C04F1500141F8250023E004F15000EA
:104E800040F825701EE0BAF1020F04D004F1500082
:104E900040F8257001E00020009013E012E0E9489E
:104EA000006808B9012000E0002050B900BF502080
:104EB00080F31188BFF34F8FBFF36F8F00BF00BF28
:104EC000FEE700BF00BFBAF1010F78D1A06A08B9B0
:104ED000012000E0002050B900BF502080F311886D
:104EE000BFF34F8FBFF36F8F00BF00BFFEE7D64801
:104EF0000068E0BB00BF6069D4E902128A60D4E9AF
:104F000002214A60211D42688A4201D1E168416064
:104F1000002262610168491E016000BF00BF94F871
:104F20002C1001208840C94909680843C749086016
:104F300000BFE16A01EB8101C54A02EB81014868CB
:104F4000A0608268E260211D826851608160E16A30
:104F500001EB8101BE4A02EB81026261E16A01EB71
:104F60008101BB4A52F82110491CE26A00E006E0C8
:104F700002EB8202B64B43F8221000BF11E000BFE3
:104F8000B4494868E0618268226204F118018268CD
:104F900051608160AF4AA26211460968491C1160E4
:104FA00000BFAD49E06A0968C96A884207D90B9811
:104FB00010B101210B9801600120A849086000BFD1
:104FC00086F3118800BF0098BDE8F88F2DE9F047FF
:104FD00005460E46904655B900BF502080F3118813
:104FE000BFF34F8FBFF36F8F00BF00BFFEE70EB957
:104FF000012000E0002050B900BF502080F311884C
:10500000BFF34F8FBFF36F8F00BF00BFFEE7FCF70A
:10501000E3FE2C4600BF5021EFF3118081F311888D
:10502000BFF34F8FBFF36F8F00BF074604F15400EB
:1050300010F8069002218155001F50F82600401CF0
:1050400004F1500141F82600B9F1010F78D1A06AAE
:1050500008B9012000E0002050B900BF502080F3C3
:105060001188BFF34F8FBFF36F8F00BF00BFFEE704
:1050700075480068002842D100BF6069D4E9021277
:105080008A60D4E902214A60211D42688A4201D126
:10509000E1684160002262610168491E016000BF51
:1050A00000BF94F82C100120884068490968084323
:1050B0006649086000BFE16A01EB8101644A02EBC6
:1050C00081014868A0608268E260211D82685160A9
:1050D0008160E16A01EB81015D4A02EB810262615C
:1050E000E16A01EB81015A4A52F82110491CE26A37
:1050F00002EB8202564B43F8221000BF11E000BFC2
:1051000054494868E0618268226204F118018268AB
:10511000516081604F4AA26211460968491C1160C2
:1051200000BF4D49E06A0968C96A884208D9B8F1E8
:10513000000F02D00120C8F8000001204749086094
:1051400000BF87F3118800BFBDE8F0872DE9F0416B
:1051500006460C460CB9012000E0002050B900BF03
:10516000502080F31188BFF34F8FBFF36F8F00BFC4
:1051700000BFFEE716B93848006800E03046074631
:10518000FCF7CFFD07F15400005D022805D1002196
:1051900007F154000155012500E00025FCF7E8FD6A
:1051A0002846BDE8F0812DE9F04106460C46174639
:1051B0000CB9012000E0002050B900BF502080F35E
:1051C0001188BFF34F8FBFF36F8F00BF00BFFEE7A3
:1051D00016B92148006800E030460546FCF7A1FDFD
:1051E00005F1500050F8248050F82400B84305F130
:1051F000500141F82400FCF7BBFD4046BDE8F081BA
:105200000021154A1160164A1160164A11600D4AB4
:1052100011600E4A1160144A1160144A1160002096
:1052200004E000210D4A42F82010401C0128F8DB60
:1052300000210F4A11600F4A11600F4A1160024AA3
:10524000116070476C000020940000207000002066
:10525000B42D0120402E0120580000207C000020A9
:105260006400002068000020740000207800002006
:105270008000002084000020880000202DE9F041FB
:1052800004460D4616461F464FF00008656024612F
:10529000B5420CD8F01BA169884202D34FF0010837
:1052A00011E0211DFD480068FCF7FAFD0BE0BE424D
:1052B00004D2BD4202D34FF0010804E0211DF8489A
:1052C0000068FCF7EDFD4046BDE8F08170B504468E
:1052D0000D46164604E0A06905442046216A884729
:1052E000A06941192B4632462046FFF7C7FF002828
:1052F000F1D170BD70B505460E46E9480068C0683A
:10530000C468201DFCF7E6FD94F8280000F00400B6
:1053100028B1324629462046FFF7D8FF05E094F829
:10532000280000F0FE0084F828002046216A884703
:1053300070BD70B508E0DA480068C06804684FF0D6
:10534000FF312046FFF7D6FFD5480068006808B94E
:10535000012000E000200028EDD0D1480568CF48AA
:105360000068CF490860CD48056070BD70B504463F
:10537000FEF739FE0546CB480068854204D2FFF7A8
:10538000D8FF0120206001E000202060C5480560B2
:10539000284670BD7FB500200190029003907FE009
:1053A000019800287CDB039C606908B9012000E0BB
:1053B000002010B9201DFCF78DFD6846FFF7D6FFD1
:1053C000054601980A2869D2DFE800F06805072E33
:1053D000365806082F3700BF00BF00BF94F82800DA
:1053E00040F0010084F828000298A2698118034661
:1053F0002A462046FFF742FFA8B194F8280000F0A3
:10540000040038B10298A26981182A462046FFF7A5
:105410005DFF05E094F8280000F0FE0084F8280005
:105420002046216A88473AE000BF94F8280000F03F
:10543000FE0084F8280032E000BF94F8280040F015
:10544000010084F828000298A061A06908B1012039
:1054500000E0002050B900BF502080F31188BFF356
:105460004F8FBFF36F8F00BF00BFFEE7A0694119E8
:105470002B462A462046FFF701FF10E094F828004B
:1054800000F0020018B92046FCF779FA05E094F81C
:10549000280000F0FE0084F8280000E000BF00BFF4
:1054A000002201A980480068FDF7D8F900287FF4A0
:1054B00077AF7FBDF8B505460C46FEF712F9684692
:1054C000FFF754FF0646009820BB44B9B54206D802
:1054D000FDF7F1FF31462846FFF70CFF1CE03CB119
:1054E0006E480068006808B9012000E0002004460A
:1054F000A91B22466C480068FDF7EEFCFDF7DBFFB8
:1055000050B94FF0805069490860BFF34F8FBFF327
:105510006F8F01E0FDF7CFFFF8BD0146604A1268CA
:1055200012680AB9012200E000220A600A6822B962
:105530005B4A1268D268106800E00020704708B526
:1055400000BF6846FFF7E9FF044620460099FFF7D1
:10555000B1FFFFF71FFFF4E710B5FCF7E2FB52487D
:105560000068D0B95248FCF77FFC5248FCF77CFC3D
:105570004F484B4908604F484849086000220C21B9
:105580000A20FCF73BFD484908600846006820B146
:1055900049A145480068FDF752FCFCF7E9FB10BD46
:1055A0001CB50024FFF7D8FF3F48006858B14448B5
:1055B000022100234FF48272CDE9001041A143483B
:1055C000FDF7D5FD044654B900BF502080F3118883
:1055D000BFF34F8FBFF36F8F00BF00BFFEE72046C2
:1055E0001CBD2DE9F04706460D4617469846DDE9F5
:1055F00008940DB1012000E0002050B900BF5020F8
:1056000080F31188BFF34F8FBFF36F8F00BF00BFD0
:10561000FEE7FFF7A1FF2660A561C4F81C80C4F86F
:105620002090201DFCF72DFC2FB194F8280040F0AD
:10563000040084F82800BDE8F0872DE9FC47054602
:105640000E4617469846DDF828902C20FCF762F8A5
:10565000044654B1002084F8280043463A463146B7
:105660002846CDE90094FFF7BCFF2046BDE8FC8743
:105670002DE9FE4305460C46164699460A9F4FF013
:10568000000855B900BF502080F31188BFF34F8F39
:10569000BFF36F8F00BF00BFFEE719E09C00002042
:1056A00098000020A8000020A000002004ED00E0E9
:1056B0007C2E0120902E0120546D725100000000BC
:1056C000A4000020546D7220537663003F550008FB
:1056D000A648006808B3009401960295062C01DAEA
:1056E000012000E0002050B900BF502080F3118855
:1056F000BFF34F8FBFF36F8F00BF00BFFEE7062CD5
:1057000014DAFEF7F1FF022808D100233A46694671
:1057100096480068FCF732FD804607E000231A46F1
:10572000694692480068FCF729FD80464046BDE87E
:10573000FE832DE9FE4305460C4616461F46DDF85E
:1057400028904FF0000855B900BF502080F3118811
:10575000BFF34F8FBFF36F8F00BF00BFFEE78348DB
:105760000068E8B1009401960295062C01DB012047
:1057700000E0002050B900BF502080F31188BFF333
:105780004F8FBFF36F8F00BF00BFFEE7062C07DB14
:1057900000233A46694675480068FCF72AFF8046B0
:1057A0004046BDE8FE837248006808B1012000E071
:1057B000002050B900BF502080F31188BFF34F8FF5
:1057C000BFF36F8F00BF00BFFEE7694800687047F6
:1057D00001460A4651B900BF502080F31188BFF33B
:1057E0004F8FBFF36F8F00BF00BFFEE79069704718
:1057F00070B505460E462C4655B900BF502080F3C3
:105800001188BFF34F8FBFF36F8F00BF00BFFEE75C
:10581000FCF787FA36B194F8280040F0040084F8C9
:10582000280005E094F8280000F0FB0084F8280028
:10583000FCF79EFA70BD70B50446264654B900BF09
:10584000502080F31188BFF34F8FBFF36F8F00BFDD
:1058500000BFFEE7FCF765FA96F8280000F00400A8
:1058600008B9002500E00125FCF782FA284670BD42
:1058700070B504462046FFF7DEFF0546284670BD9A
:1058800010B501460A4651B900BF502383F3118871
:10589000BFF34F8FBFF36F8F00BF00BFFEE75068AD
:1058A00010BD01460A4651B900BF502080F311884F
:1058B000BFF34F8FBFF36F8F00BF00BFFEE71068CD
:1058C000704770B50446264654B900BF502080F397
:1058D0001188BFF34F8FBFF36F8F00BF00BFFEE78C
:1058E000FCF71FFA96F8280000F0010008B900251F
:1058F00000E00125FCF73CFA284670BD70B504466F
:10590000254654B900BF502080F31188BFF34F8F54
:10591000BFF36F8F00BF00BFFEE7FCF702FAEE692E
:10592000FCF726FA304670BD70B504460D46264693
:1059300054B900BF502080F31188BFF34F8FBFF3DD
:105940006F8F00BF00BFFEE7FCF7EBF9F561FCF7D6
:105950000FFA70BD0146486A7047416270470020E7
:10596000024908600249086070470000A00000205A
:10597000A4000020704700000FB4044910B503AA2A
:10598000029800F09FF810BC5DF814FB280000207E
:10599000032A40F2308010F0030C00F0158011F85B
:1059A000013BBCF1020F624498BF11F801CB00F833
:1059B000013B38BF11F8013BA2F1040298BF00F887
:1059C00001CB38BF00F8013B11F0030300F08C80DD
:1059D000083AC0F0088051F8043B083A51F804CB6B
:1059E000A0E80810F5E7121D5CBF51F8043B40F831
:1059F000043BAFF30080D20724BF11F8013B11F83C
:105A000001CB48BF11F8012B24BF00F8013B00F87F
:105A100001CB48BF00F8012B704702F0FF0343EAB7
:105A2000032242EA024200F002B84FF000020429C9
:105A3000C0F0128010F0030C00F01B80CCF1040CBD
:105A4000BCF1020F18BF00F8012BA8BF20F8022BF1
:105A5000A1EB0C0100F00DB85FEAC17C24BF00F897
:105A6000012B00F8012B48BF00F8012B70474FF0C5
:105A7000000200B5134694469646203922BFA0E89E
:105A80000C50A0E80C50B1F12001BFF4F7AF0907AA
:105A900028BFA0E80C5048BF0CC05DF804EB89009B
:105AA00028BF40F8042B08BF704748BF20F8022BDE
:105AB00011F0804F18BF00F8012B704770477047F6
:105AC00070477047074B70B50D467B4400F043F8B4
:105AD0000446284600F052F810B14FF0FF3070BD78
